:100000000C9461000C9473000C9473000C947300B6
:100010000C9473000C9473000C9473000C94730094
:100020000C9473000C9473000C9473000C94730084
:100030000C9473000C9473000C9473000C94730074
:100040000C9492010C9473000C9473000C94730044
:100050000C9473000C9473000C9473000C94730054
:100060000C9473000C94730000000000240027001F
:100070002A0000000000250028002B0000000000DE
:1000800023002600290004040404040404040202DA
:100090000202020203030303030301020408102007
:1000A0004080010204081020010204081020000012
:1000B0000008000201000003040700000000000027
:1000C000000011241FBECFEFD8E0DEBFCDBF21E07E
:1000D000A0E0B1E001C01D92A231B207E1F70E9499
:1000E000DC010C945E060C940000833081F028F44F
:1000F000813099F08230A9F008958730A9F08830D6
:10010000C9F08430B1F4809180008F7D03C080916C
:1001100080008F7780938000089584B58F7784BDA9
:10012000089584B58F7DFBCF8091B0008F77809349
:10013000B00008958091B0008F7DF9CFCF93DF9309
:10014000282F30E0F901E255FF4F8491F901E6567E
:10015000FF4FD491F901EA57FF4FC491CC23A1F08E
:1001600081110E947500EC2FF0E0EE0FFF1FE458A4
:10017000FF4FA591B491EC91ED2381E090E009F45B
:1001800080E0DF91CF91089580E090E0FACF1F9357
:10019000CF93DF93282F30E0F901E255FF4F849190
:1001A000F901E656FF4FD491F901EA57FF4FC49188
:1001B000CC23A9F0162F81110E947500EC2FF0E0DE
:1001C000EE0FFF1FEE58FF4FA591B4918FB7F89433
:1001D000EC91111108C0D095DE23DC938FBFDF9125
:1001E000CF911F910895DE2BF8CFCF93DF9390E04E
:1001F000FC01E656FF4F24918A579F4FFC018491E2
:100200008823D1F090E0880F991FFC01E859FF4F37
:10021000A591B491FC01EE58FF4FC591D4916111A5
:100220000EC09FB7F8948C91E22FE0958E238C93AB
:100230002881E223E8839FBFDF91CF9108958FB794
:10024000F894EC91E22BEC938FBFF6CF8E50806444
:1002500080937C0080917A00806480937A00809102
:100260007A0086FDFCCF8091780090917900089506
:100270003FB7F8948091050190910601A091070184
:10028000B091080126B5A89B05C02F3F19F0019633
:10029000A11DB11D3FBFBA2FA92F982F8827BC01E0
:1002A000CD01620F711D811D911D42E0660F771F08
:1002B000881F991F4A95D1F708958F929F92AF9208
:1002C000BF92CF92DF92EF92FF920E9438014B01D2
:1002D0005C0182E3C82ED12CE12CF12C0E94380164
:1002E000681979098A099B09683E7340810591055F
:1002F000A8F321E0C21AD108E108F10888EE880EBF
:1003000083E0981EA11CB11CC114D104E104F104C6
:1003100029F7FF90EF90DF90CF90BF90AF909F9024
:100320008F9008951F920F920FB60F9211242F9362
:100330003F938F939F93AF93BF93809101019091CF
:100340000201A0910301B09104013091000123E06A
:10035000230F2D3758F50196A11DB11D20930001E3
:100360008093010190930201A0930301B0930401D3
:100370008091050190910601A0910701B0910801BB
:100380000196A11DB11D8093050190930601A093D4
:100390000701B0930801BF91AF919F918F913F9159
:1003A0002F910F900FBE0F901F90189526E8230FE6
:1003B0000296A11DB11DD2CFCF93DF93CDB7DEB78B
:1003C000AB970FB6F894DEBF0FBECDBF789484B55F
:1003D000826084BD84B5816084BD85B5826085BD41
:1003E00085B5816085BD80916E00816080936E00CF
:1003F00010928100809181008260809381008091C1
:100400008100816080938100809180008160809371
:1004100080008091B10084608093B1008091B00031
:1004200081608093B00080917A00846080937A002C
:1004300080917A00826080937A0080917A00816056
:1004400080937A0080917A00806880937A0010927D
:10045000C10061E08DE00E94F50061E08CE00E9447
:10046000F50060E08EE00E94F50060E08FE00E9401
:10047000F50060E089E00E94F50060E08AE00E94FB
:10048000F50060E08BE00E94F5009BE0292E312C06
:100490003E0149E2640E711CCC24C394D12C3FE090
:1004A000A32EB12C42E0842E912C83E0482E512CB7
:1004B0008EE00E9426017C0190931101809310012F
:1004C0008FE00E9426018C0190930F0180930E0112
:1004D00089E00E949E008BA780930D018AE00E9414
:1004E0009E008AA780930C018BE00E949E0089A742
:1004F00080930B010E945D011E141F040CF043C287
:10050000101611060CF03FC281E090E057E6E516A8
:10051000F1040CF43FC0C701875691098736910555
:10052000B8F1875691098636910508F474C086564D
:1005300091098636910508F471C086569109863670
:10054000910508F46EC0865691098736910508F426
:100550006BC0875691098636910508F468C08656A7
:1005600091098636910508F465C08656910987364B
:10057000910508F462C08AE9E81A83E0F80A90E07D
:1005800080E046E6E416F10428F48AE090E002C038
:1005900082E090E02BE030E0073611050CF452C009
:1005A0009801275631092736310508F449C02756E6
:1005B00031092636310508F417C126563109263689
:1005C000310508F414C1265631092636310508F4E0
:1005D00011C1265631092736310508F40EC12756B8
:1005E00031092636310508F40BC126563109263665
:1005F000310508F408C1265631092736310508F4BB
:1006000005C10A59134030E020E006361105D0F448
:1006100024E130E017C083E090E0BCCF84E090E0BC
:10062000B9CF85E090E0B6CF86E090E0B3CF87E029
:1006300090E0B0CF88E090E0ADCF89E090E0AACF25
:100640002CE030E05BA55111B8C14AA54111AEC103
:1006500059A5511157C0DA82C98243E150E05C8349
:100660004B839E828D8242E150E058874F835A86A9
:10067000498640E150E05C874B8744E050E05E876C
:100680004D874DE050E0588B4F8745E050E05A8B46
:10069000498B3C8A2B8A46E050E05E8B4D8B44E1CF
:1006A00050E0588F4F8B47E050E05A8F498F4EE013
:1006B00050E05C8F4B8F48E050E05E8F4D8FB8A2CA
:1006C000AF8E49E050E05AA349A34CE050E05CA350
:1006D0004BA34AE050E05EA34DA341E150E058A790
:1006E0004FA3FE013196408151814817590731F4DB
:1006F000428153814217530709F43DC134966E1667
:100700007F0689F710E000E049A5413009F057C0A5
:10071000DA82C9824CE050E05C834B839E828D82FA
:1007200038862F825A86498644E150E05C874B87A1
:1007300044E050E05E874D8741E150E0588B4F87A1
:1007400045E050E05A8B498B4EE050E05C8B4B8B80
:1007500046E050E05E8B4D8B40E150E0588F4F8B70
:1007600047E050E05A8F498FBC8EAB8E48E050E096
:100770005E8F4D8F42E150E058A34F8F49E050E02B
:100780005AA349A34DE050E05CA34BA34AE050E0DC
:100790005EA34DA343E150E058A74FA3FE0131965D
:1007A000408151818417950731F442815381241788
:1007B000350709F47CC234966E167F0689F71093CC
:1007C0000A01009309010E945D010115110509F458
:1007D000DDC060E00130110509F0D9C060E08DE0B6
:1007E0000E94C70061E0D7C02DE030E02BCF2EE0A3
:1007F00030E028CF2FE030E025CF20E130E022CFDD
:1008000021E130E01FCF22E130E01CCF23E130E0D6
:1008100019CF59A5511157C0DA82C982BC82AB8267
:100820009E828D824CE050E058874F835A864986DD
:1008300044E150E05C874B8744E050E05E874D87A1
:1008400043E150E0588B4F8745E050E05A8B498B8D
:1008500040E150E05C8B4B8B46E050E05E8B4D8B73
:10086000388E2F8A47E050E05A8F498F4DE050E094
:100870005C8F4B8F48E050E05E8F4D8F41E150E040
:1008800058A34F8F49E050E05AA349A34EE050E0EF
:100890005CA34BA34AE050E05EA34DA342E150E0CD
:1008A00058A74FA3FE0131964081518184179507C7
:1008B00031F4428153812417350709F45CC0349622
:1008C0006E167F0689F710E000E049A5413009F077
:1008D00076CFDA82C98243E150E05C834B839E820B
:1008E0008D824DE050E058874F835A86498640E11B
:1008F00050E05C874B8744E050E05E874D874CE0DA
:1009000050E0588B4F8745E050E05A8B498B42E1CD
:1009100050E05C8B4B8B46E050E05E8B4D8BB88E8D
:10092000AF8A47E050E05A8F498F4EE050E05C8F2D
:100930004B8F48E050E05E8F4D8F38A22F8E49E0FC
:1009400050E05AA349A344E150E05CA34BA34AE022
:1009500050E05EA34DA341E150E058A74FA3FE0134
:100960003196408151818417950741F4428153812A
:100970002417350719F401E010E021CF3496E6156D
:10098000F70579F71CCF0FEF1FEF19CF61E08DE06E
:100990000E94C70060E08CE00E94C70080E090E009
:1009A000892B09F485CD0E9400007FCD5AA55130D6
:1009B00009F42FCF10E000E002CF4BA54130D1F772
:1009C0005AA55111B8C049A5411157C0DA82C98250
:1009D00041E150E05C834B839E828D824CE050E08D
:1009E00058874F835A864986BC86AB8644E050E0E0
:1009F0005E874D874EE050E0588B4F8745E050E0D2
:100A00005A8B498B44E150E05C8B4B8B46E050E0C5
:100A10005E8B4D8B388E2F8A47E050E05A8F498F7E
:100A20004DE050E05C8F4B8F48E050E05E8F4D8F83
:100A300040E150E058A34F8F49E050E05AA349A34A
:100A400042E150E05CA34BA34AE050E05EA34DA31B
:100A500043E150E058A74FA3FE01319640815181F8
:100A60008417950731F4428153812417350709F41F
:100A700082CF3496E615F70589F710E000E059A516
:100A8000513009F09CCEDA82C98244E150E05C83A7
:100A90004B839E828D8243E150E058874F835A8674
:100AA00049863C862B8644E050E05E874D87B88AB5
:100AB000AF8645E050E05A8B498B4DE050E05C8BAF
:100AC0004B8B46E050E05E8B4D8B4EE050E0588FF4
:100AD0004F8B47E050E05A8F498F4CE050E05C8FDD
:100AE0004B8F48E050E05E8F4D8F41E150E058A3BE
:100AF0004F8F49E050E05AA349A340E150E05CA386
:100B00004BA34AE050E05EA34DA342E150E058A75A
:100B10004FA3FE013196408151818417950731F42E
:100B2000428153812417350709F4C1C034966E16EB
:100B30007F0689F744CE5AA5513009F03BCF59A51D
:100B4000511157C0DA82C98243E150E05C834B8384
:100B50009E828D8242E150E058874F835A864986B3
:100B600040E150E05C874B8744E050E05E874D8772
:100B70004DE050E0588B4F8745E050E05A8B498B51
:100B80003C8A2B8A46E050E05E8B4D8B44E150E07E
:100B9000588F4F8B47E050E05A8F498F4EE050E01E
:100BA0005C8F4B8F48E050E05E8F4D8FB8A2AF8EC8
:100BB00049E050E05AA349A34CE050E05CA34BA3AA
:100BC0004AE050E05EA34DA341E150E058A74FA397
:100BD000FE013196408151818417950731F442819D
:100BE00053812417350709F4C6CE34966E167F0656
:100BF00089F710E000E059A5513009F0E0CDDA8224
:100C0000C982BC82AB829E828D8238862F825A86B0
:100C1000498641E150E05C874B8744E050E05E87C5
:100C20004D874EE050E0588B4F8745E050E05A8B9F
:100C3000498B4DE050E05C8B4B8B46E050E05E8B87
:100C40004D8B4CE050E0588F4F8B47E050E05A8F6F
:100C5000498F40E150E05C8F4B8F48E050E05E8F61
:100C60004D8F44E150E058A34F8F49E050E05AA324
:100C700049A343E150E05CA34BA34AE050E05EA3EC
:100C80004DA342E150E058A74FA3FE0131964081A9
:100C900051818417950731F4428153812417350718
:100CA00009F469CE3496E615F70589F788CDD09218
:100CB0000A01C09209010E945D0190CDF894FFCF16
:00000001FF
