:040000008A15002835
:0E0006008312031328088A00270882000800CE
:1000140003208A110A128000840AA70A0319A80A75
:08002400F003031D0A28080087
:10002C00243083120313FD00FD0B1A280000080076
:10003C00831203139F01C0309F042009F000700845
:10004C0083169F051F179F1783122C08F000F00DC5
:10005C007010F00D7010F00D701070089F041F14CC
:10006C0016201F151F1D3C28000038281F101E08C5
:10007C00F100F00183161E08F0040030F1040800B2
:10008C00FF3083120313A900FF30AA00FF30AB002E
:10009C00FF309F01C0309F042009F00070088316C8
:0C00AC009F051F179F1783121F140800E8
:1000B800D03083120313A7000730A8003030840023
:1000C8003030F0000A208030F00080302D067002B9
:1000D800031D70282C08003C03187E288030F0008F
:1000E80080302F067002031D7B282E08003C031861
:1000F8007E288328FF30F000FF30F100CF2F8030BA
:100108002D06F00080307002031D8C2800302C0270
:10011800031C9E288030F00080302D067002031DDD
:1001280097282C08663C031C9E280130DC00003010
:10013800DD009F298030F00080302D067002031DFD
:10014800A7282C08663C0318B9288030F0008030B6
:100158002D067002031DB2282C08CD3C031CB928BB
:100168000230DC000030DD009F298030F000803054
:100178002D067002031DC2282C08CD3C0318D52873
:100188008030013AF00080302D067002031DCE2821
:100198002C08333C031CD5280330DC000030DD007C
:1001A8009F298030013AF00080302D067002031D2F
:1001B800DF282C08333C0318F2288030013AF0007D
:1001C80080302D067002031DEB282C08993C031C77
:1001D800F2280430DC000030DD009F298030013A2D
:1001E800F00080302D067002031DFC282C08993C75
:1001F80003180F298030013AF00080302D06700274
:10020800031D08292C08FF3C031C0F290530DC00BE
:100218000030DD009F298030013AF00080302D0643
:100228007002031D19292C08FF3C03182C29803063
:10023800023AF00080302D067002031D25292C0893
:10024800663C031C2C290630DC000030DD009F29A9
:100258008030023AF00080302D067002031D3629E6
:100268002C08663C031849298030023AF000803097
:100278002D067002031D42292C08CC3C031C492979
:100288000730DC000030DD009F298030023AF000A2
:1002980080302D067002031D53292C08CC3C03180E
:1002A80066298030033AF00080302D067002031D65
:1002B8005F292C08323C031C66290830DC0000301A
:1002C800DD009F298030033AF00080302D0670024F
:1002D800031D70292C08323C031883298030033A07
:1002E800F00080302D067002031D7C292C08993CF3
:1002F800031C83290930DC000030DD009F29803091
:10030800033AF00080302D067002031D8D292C0859
:10031800993C03189F298030033AF00080302D065D
:100328007002031D99292C08FF3C031C9F290A30E1
:10033800DC000030DD0080302F06F00080307002D5
:10034800031DA82900302E02031CBA298030F000B2
:1003580080302F067002031DB3292E08663C031C4B
:10036800BA290B30DE000030DF00BB2A8030F000F5
:1003780080302F067002031DC3292E08663C03181F
:10038800D5298030F00080302F067002031DCE2959
:100398002E08CD3C031CD5290C30DE000030DF00D0
:1003A800BB2A8030F00080302F067002031DDE2942
:1003B8002E08CD3C0318F1298030013AF000803036
:1003C8002F067002031DEA292E08333C031CF1296D
:1003D8000D30DE000030DF00BB2A8030013AF0002B
:1003E80080302F067002031DFB292E08333C0318AA
:1003F8000E2A8030013AF00080302F067002031D6B
:10040800072A2E08993C031C0E2A0E30DE00003005
:10041800DF00BB2A8030013AF00080302F067002DE
:10042800031D182A2E08993C03182B2A8030013AFC
:10043800F00080302F067002031D242A2E08FF3C8E
:10044800031C2B2A0F30DE000030DF00BB2A80306F
:10045800013AF00080302F067002031D352A2E085D
:10046800FF3C0318482A8030023AF00080302F06FB
:100478007002031D412A2E08663C031C482A1030CE
:10048800DE000030DF00BB2A8030023AF000803006
:100498002F067002031D522A2E08663C0318652A8F
:1004A8008030023AF00080302F067002031D5E2A69
:1004B8002E08CC3C031C652A1130DE000030DF001A
:1004C800BB2A8030023AF00080302F067002031DEC
:1004D8006F2A2E08CC3C0318822A8030033AF00099
:1004E80080302F067002031D7B2A2E08323C031C25
:1004F800822A1230DE000030DF00BB2A8030033A47
:10050800F00080302F067002031D8C2A2E08323C22
:1005180003189F2A8030033AF00080302F067002BB
:10052800031D982A2E08993C031C9F2A1330DE00CD
:100538000030DF00BB2A8030033AF00080302F06FD
:100548007002031DA92A2E08993C0318BB2A803083
:10055800033AF00080302F067002031DB52A2E08DA
:10056800FF3C031CBB2A1430DE000030DF000718F4
:100578005D2B87185D2B07195D2B0130B00000300B
:10058800B1001330B2000030B3000230B4000030C4
:10059800B5001230B6000030B7000330B8000030A4
:1005A800B9001030BA000030BB000430BC00003085
:1005B800BD000D30BE000030BF000530C000003067
:1005C800C1000B30C2000030C3000630C400003048
:1005D800C5001430C6000030C7000730C80000301E
:1005E800C9000E30CA000030CB000830CC00003003
:1005F800CD000F30CE000030CF000930D0000030E1
:10060800D1000C30D2000030D3000A30D4000030C2
:10061800D5001130D6000030D700D801D90180307C
:100628005906F00080307002031D1C2B0A30580256
:1006380003185D2B5808F0005908F100F00DF10D72
:100648007010F00DF10D70107008303E8400000835
:10065800F100840A0008F20072085D06031D362BBB
:100668005C087106031D592B5808F0005908F10061
:10067800F00DF10D7010F00DF10D70103030F00725
:100688000230700784000008F100840A0008F200B4
:1006980072085F06031D522B5E087106031D592B55
:1006A8000130DA000030DB005D2BD80A0319D90AC3
:1006B800132B0718FF2B871CFF2B0719FF2B013063
:1006C800B0000030B1000F30B2000030B30002308B
:1006D800B4000030B5000C30B6000030B70003306D
:1006E800B8000030B9001430BA000030BB00043044
:1006F800BC000030BD001330BE000030BF00053024
:10070800C0000030C1001030C2000030C300063005
:10071800C4000030C5000B30C6000030C7000730E9
:10072800C8000030C9000D30CA000030CB000830C6
:10073800CC000030CD001130CE000030CF000930A1
:10074800D0000030D1000E30D2000030D3000A3083
:10075800D4000030D5001230D6000030D700D801C0
:10076800D90180305906F00080307002031DBE2B7D
:100778000A3058020318FF2B5808F0005908F100F6
:10078800F00DF10D7010F00DF10D70107008303E85
:1007980084000008F100840A0008F20072085D066F
:1007A800031DD82B5C087106031DFB2B5808F000AD
:1007B8005908F100F00DF10D7010F00DF10D7010E9
:1007C8003030F0070230700784000008F100840A16
:1007D8000008F20072085F06031DF42B5E0871061C
:1007E800031DFB2B0130DA000030DB00FF2BD80A99
:1007F8000319D90AB52B071CA12C8718A12C071996
:10080800A12C0130B0000030B1001130B20000302E
:10081800B3000230B4000030B5000C30B600003030
:10082800B7000330B8000030B9000F30BA0000300C
:10083800BB000430BC000030BD000E30BE000030EC
:10084800BF000530C0000030C1001430C2000030C5
:10085800C3000630C4000030C5000B30C6000030AD
:10086800C7000730C8000030C9000D30CA0000308A
:10087800CB000830CC000030CD001030CE00003066
:10088800CF000930D0000030D1001230D200003043
:10089800D3000A30D4000030D5001330D600003021
:1008A800D700D801D90180305906F0008030700295
:1008B800031D602C0A3058020318A12C5808F000B8
:1008C8005908F100F00DF10D7010F00DF10D7010D8
:1008D8007008303E84000008F100840A0008F20025
:1008E80072085D06031D7A2C5C087106031D9D2C99
:1008F8005808F0005908F100F00DF10D7010F00DD6
:10090800F10D70103030F0070230700784000008D5
:10091800F100840A0008F20072085F06031D962C95
:100928005E087106031D9D2C0130DA000030DB00E3
:10093800A12CD80A0319D90A572C071C432D871C48
:10094800432D0719432D0130B0000030B10013309A
:10095800B2000030B3000230B4000030B5001230ED
:10096800B6000030B7000330B8000030B9001030CE
:10097800BA000030BB000430BC000030BD000D30B0
:10098800BE000030BF000530C0000030C1000B3091
:10099800C2000030C3000630C4000030C500143067
:1009A800C6000030C7000730C8000030C9000E304C
:1009B800CA000030CB000830CC000030CD000F302A
:1009C800CE000030CF000930D0000030D1000C300C
:1009D800D2000030D3000A30D4000030D5001130E6
:1009E800D6000030D700D801D90180305906F00070
:1009F80080307002031D022D0A3058020318432D5F
:100A08005808F0005908F100F00DF10D7010F00DC4
:100A1800F10D70107008303E84000008F100840A5F
:100A28000008F20072085D06031D1C2D5C087106A3
:100A3800031D3F2D5808F0005908F100F00DF10D85
:100A48007010F00DF10D70103030F00702307007A3
:100A580084000008F100840A0008F20072085F06AA
:100A6800031D382D5E087106031D3F2D0130DA0085
:100A78000030DB00432DD80A0319D90AF92C0718CE
:100A8800E52D8718E52D071DE52D0130B000003054
:100A9800B1000C30B2000030B3000230B4000030B6
:100AA800B5000B30B6000030B7000330B800003096
:100AB800B9001430BA000030BB000430BC0000306C
:100AC800BD001130BE000030BF000530C00000304E
:100AD800C1000E30C2000030C3000630C400003030
:100AE800C5001030C6000030C7000730C80000300D
:100AF800C9000F30CA000030CB000830CC000030ED
:100B0800CD001230CE000030CF000930D0000030C8
:100B1800D1000D30D2000030D3000A30D4000030AC
:100B2800D5001330D6000030D700D801D901803065
:100B38005906F00080307002031DA42D0A305802B7
:100B48000318E52D5808F0005908F100F00DF10DD3
:100B58007010F00DF10D70107008303E8400000820
:100B6800F100840A0008F20072085D06031DBE2D1C
:100B78005C087106031DE12D5808F0005908F100C2
:100B8800F00DF10D7010F00DF10D70103030F00710
:100B98000230700784000008F100840A0008F2009F
:100BA80072085F06031DDA2D5E087106031DE12D2C
:100BB8000130DA000030DB00E52DD80A0319D90A24
:100BC8009B2D0718872E871C872E071D872E01301F
:100BD800B0000030B1001330B2000030B300023072
:100BE800B4000030B5000D30B6000030B700033057
:100BF800B8000030B9001030BA000030BB00043033
:100C0800BC000030BD000C30BE000030BF00053015
:100C1800C0000030C1001230C2000030C3000630EE
:100C2800C4000030C5000F30C6000030C7000730D0
:100C3800C8000030C9000E30CA000030CB000830B0
:100C4800CC000030CD000B30CE000030CF00093092
:100C5800D0000030D1001430D2000030D3000A3068
:100C6800D4000030D5001130D6000030D700D801AC
:100C7800D90180305906F00080307002031D462EDD
:100C88000A3058020318872E5808F0005908F10056
:100C9800F00DF10D7010F00DF10D70107008303E70
:100CA80084000008F100840A0008F20072085D065A
:100CB800031D602E5C087106031D832E5808F00082
:100CC8005908F100F00DF10D7010F00DF10D7010D4
:100CD8003030F0070230700784000008F100840A01
:100CE8000008F20072085F06031D7C2E5E0871067C
:100CF800031D832E0130DA000030DB00872ED80A6E
:100D08000319D90A3D2E071C292F8718292F071DDB
:100D1800292F0130B0000030B1001430B20000308B
:100D2800B3000230B4000030B5001330B600003014
:100D3800B7000330B8000030B9000B30BA000030FB
:100D4800BB000430BC000030BD000F30BE000030D6
:100D5800BF000530C0000030C1000D30C2000030B7
:100D6800C3000630C4000030C5000E30C600003095
:100D7800C7000730C8000030C9000C30CA00003076
:100D8800CB000830CC000030CD001130CE00003050
:100D9800CF000930D0000030D1001030D200003030
:100DA800D3000A30D4000030D5001230D60000300D
:100DB800D700D801D90180305906F0008030700280
:100DC800031DE82E0A3058020318292F5808F0008E
:100DD8005908F100F00DF10D7010F00DF10D7010C3
:100DE8007008303E84000008F100840A0008F20010
:100DF80072085D06031D022F5C087106031D252F6E
:100E08005808F0005908F100F00DF10D7010F00DC0
:100E1800F10D70103030F0070230700784000008C0
:100E2800F100840A0008F20072085F06031D1E2FF5
:100E38005E087106031D252F0130DA000030DB0043
:100E4800292FD80A0319D90ADF2E071CCB2F871C94
:100E5800CB2F071DCB2F0130B0000030B1000F3071
:100E6800B2000030B3000230B4000030B5000B30DF
:100E7800B6000030B7000330B8000030B9001130B8
:100E8800BA000030BB000430BC000030BD000E309A
:100E9800BE000030BF000530C0000030C1000D307A
:100EA800C2000030C3000630C4000030C5000C305A
:100EB800C6000030C7000730C8000030C900103035
:100EC800CA000030CB000830CC000030CD00143010
:100ED800CE000030CF000930D0000030D1001330F0
:100EE800D2000030D3000A30D4000030D5001230D0
:100EF800D6000030D700D801D90180305906F0005B
:100F080080307002031D8A2F0A3058020318CB2F35
:100F18005808F0005908F100F00DF10D7010F00DAF
:100F2800F10D70107008303E84000008F100840A4A
:100F38000008F20072085D06031DA42F5C08710604
:100F4800031DC72F5808F0005908F100F00DF10DE6
:100F58007010F00DF10D70103030F007023070078E
:100F680084000008F100840A0008F20072085F0695
:100F7800031DC02F5E087106031DC72F0130DA005C
:100F88000030DB00CB2FD80A0319D90A812F5A0861
:080F9800F0005B08F100080005
:101000008E20FF308316031385008601FF30870092
:1010100083121F139F1383161F1383129F111F1216
:101020009F121F1483169F131F109F101F159F15CB
:101030001C149C141C158A1146208A1586018701F0
:10104000AC018A111E208A1570088312A300710852
:10105000A4000130AC008A111E208A15700883128A
:10106000A1007108A2000230FB004530FC00A9304D
:10107000FD00FD0B3928FC0B3928FB0B392800003B
:1010800000002308AC002408AD002108AE002208AF
:10109000AF008A115C208A157008A5007108A600AF
:1010A0000230FB004530FC00A930FD00FD0B562846
:1010B000FC0B5628FB0B5628000000006828061081
:1010C0008610802806148610802806108614802832
:1010D000FF302606031D6E28FF30250603195F2802
:1010E00000302606031D76280030250603196228E5
:1010F00000302606031D7E280130250603196528C9
:0411000020288128FA
:10111C0020308400073083120313F0008730A700BF
:0C112C000830A8008A110A208A1508006B
:100FA00000340034003400340034003400340034A1
:100FB0000034003400340034003400340034003491
:100FC0000034003400340034003400340034003481
:100FD0000034003400340034003400340034003471
:100FE0000034003400340034003400340034003461
:040FF0000034003495
:040FF4000034003491
:040FF800003400348D
:040FFC000034003489
:02110E000F349C
:041110000034003473
:04111400003400346F
:04111800003400346B
:02400E004A2F37
:00000001FF
